{"abi":[{"type":"constructor","inputs":[],"stateMutability":"nonpayable"},{"type":"function","name":"changeOwner","inputs":[{"name":"_newowner","type":"address","internalType":"address"}],"outputs":[],"stateMutability":"nonpayable"},{"type":"function","name":"increment","inputs":[],"outputs":[],"stateMutability":"nonpayable"},{"type":"function","name":"number","inputs":[],"outputs":[{"name":"","type":"uint256","internalType":"uint256"}],"stateMutability":"view"},{"type":"function","name":"owner","inputs":[],"outputs":[{"name":"","type":"address","internalType":"address"}],"stateMutability":"view"},{"type":"function","name":"setNumber","inputs":[{"name":"newNumber","type":"uint256","internalType":"uint256"}],"outputs":[],"stateMutability":"nonpayable"}],"bytecode":{"object":"0x6080604052348015600e575f5ffd5b50600180546001600160a01b0319163317905561020d8061002e5f395ff3fe608060405234801561000f575f5ffd5b5060043610610055575f3560e01c80633fb5c1cb146100595780638381f58a1461006d5780638da5cb5b14610088578063a6f9dae1146100b3578063d09de08a146100c6575b5f5ffd5b61006b61006736600461016f565b5f55565b005b6100755f5481565b6040519081526020015b60405180910390f35b60015461009b906001600160a01b031681565b6040516001600160a01b03909116815260200161007f565b61006b6100c1366004610186565b6100ce565b61006b61015a565b6001546001600160a01b031633146101385760405162461bcd60e51b815260206004820152602360248201527f6f6e6c7920746865206f776e65722063616e206368616e676520746865206f776044820152623732b960e91b606482015260840160405180910390fd5b600180546001600160a01b0319166001600160a01b0392909216919091179055565b5f80549080610168836101b3565b9190505550565b5f6020828403121561017f575f5ffd5b5035919050565b5f60208284031215610196575f5ffd5b81356001600160a01b03811681146101ac575f5ffd5b9392505050565b5f600182016101d057634e487b7160e01b5f52601160045260245ffd5b506001019056fea2646970667358221220b7c4867aea878d11092dfde79d4227915666386eab1d4bd7f90d33d027a13e2a64736f6c634300081c0033","linkReferences":{}},"methodIdentifiers":{"changeOwner(address)":"a6f9dae1","increment()":"d09de08a","number()":"8381f58a","owner()":"8da5cb5b","setNumber(uint256)":"3fb5c1cb"},"id":18}