{"abi":[{"type":"function","name":"buyerDeposit","inputs":[],"outputs":[],"stateMutability":"payable"},{"type":"function","name":"increment","inputs":[],"outputs":[],"stateMutability":"nonpayable"},{"type":"function","name":"number","inputs":[],"outputs":[{"name":"","type":"uint256","internalType":"uint256"}],"stateMutability":"view"},{"type":"function","name":"setNumber","inputs":[{"name":"newNumber","type":"uint256","internalType":"uint256"}],"outputs":[],"stateMutability":"nonpayable"}],"bytecode":{"object":"0x6080604052348015600e575f5ffd5b5061017a8061001c5f395ff3fe60806040526004361061003e575f3560e01c80633fb5c1cb146100425780638381f58a14610062578063a057958714610088578063d09de08a14610090575b5f5ffd5b34801561004d575f5ffd5b5061006061005c366004610109565b5f55565b005b34801561006d575f5ffd5b506100765f5481565b60405190815260200160405180910390f35b6100606100a4565b34801561009b575f5ffd5b506100606100f4565b34671bc16d674ec80000146100f25760405162461bcd60e51b815260206004820152601060248201526f1a5b98dbdc9c9958dd08185b5bdd5b9d60821b604482015260640160405180910390fd5b565b5f8054908061010283610120565b9190505550565b5f60208284031215610119575f5ffd5b5035919050565b5f6001820161013d57634e487b7160e01b5f52601160045260245ffd5b506001019056fea2646970667358221220b5b6f06760ee2ef7d5683087d0ba7103f5eec73bd6f03f852fff4e733eef0df964736f6c634300081c0033","linkReferences":{}},"methodIdentifiers":{"buyerDeposit()":"a0579587","increment()":"d09de08a","number()":"8381f58a","setNumber(uint256)":"3fb5c1cb"},"id":18}