{"abi":[{"type":"constructor","inputs":[{"name":"_seller","type":"address","internalType":"address"}],"stateMutability":"nonpayable"},{"type":"function","name":"buyerDeposit","inputs":[],"outputs":[],"stateMutability":"payable"},{"type":"function","name":"depositTime","inputs":[{"name":"","type":"address","internalType":"address"}],"outputs":[{"name":"","type":"uint256","internalType":"uint256"}],"stateMutability":"view"},{"type":"function","name":"seller","inputs":[],"outputs":[{"name":"","type":"address","internalType":"address"}],"stateMutability":"view"},{"type":"function","name":"sellerWithdraw","inputs":[{"name":"buyer","type":"address","internalType":"address"}],"outputs":[],"stateMutability":"nonpayable"},{"type":"event","name":"Deposited","inputs":[{"name":"","type":"address","indexed":true,"internalType":"address"}],"anonymous":false},{"type":"event","name":"SellerWithdraw","inputs":[{"name":"","type":"address","indexed":true,"internalType":"address"},{"name":"","type":"uint256","indexed":true,"internalType":"uint256"}],"anonymous":false}],"bytecode":{"object":"0x6080604052348015600e575f5ffd5b506040516104b03803806104b0833981016040819052602b91604e565b5f80546001600160a01b0319166001600160a01b03929092169190911790556079565b5f60208284031215605d575f5ffd5b81516001600160a01b03811681146072575f5ffd5b9392505050565b61042a806100865f395ff3fe60806040526004361061003e575f3560e01c806308551a53146100425780632e99a3bc1461007d57806346c648731461009e578063a0579587146100d7575b5f5ffd5b34801561004d575f5ffd5b505f54610060906001600160a01b031681565b6040516001600160a01b0390911681526020015b60405180910390f35b348015610088575f5ffd5b5061009c6100973660046103a2565b6100df565b005b3480156100a9575f5ffd5b506100c96100b83660046103a2565b60016020525f908152604090205481565b604051908152602001610074565b61009c6102cd565b5f546001600160a01b0316331461012e5760405162461bcd60e51b815260206004820152600e60248201526d3737ba103a34329039b2b63632b960911b60448201526064015b60405180910390fd5b6001600160a01b0381165f908152600160205260408120549081900361018e5760405162461bcd60e51b8152602060048201526015602482015274189d5e595c88191a59081b9bdd0819195c1bdcda5d605a1b6044820152606401610125565b6203f48061019c82426103cf565b116101e95760405162461bcd60e51b815260206004820152601860248201527f726566756e6420706572696f64206e6f742070617373656400000000000000006044820152606401610125565b6001600160a01b0382165f81815260016020526040808220829055514292917f4a6c1637fbf5139762d2fb05f083cd3bd73c657fa29862a28e96c705156c256c91a36040515f903390670de0b6b3a7640000908381818185875af1925050503d805f8114610272576040519150601f19603f3d011682016040523d82523d5f602084013e610277565b606091505b50509050806102c85760405162461bcd60e51b815260206004820152601760248201527f73656c6c657220646964206e6f742077697468647261770000000000000000006044820152606401610125565b505050565b34670de0b6b3a7640000146103175760405162461bcd60e51b815260206004820152601060248201526f1a5b98dbdc9c9958dd08185b5bdd5b9d60821b6044820152606401610125565b335f9081526001602052604090205480156103685760405162461bcd60e51b8152602060048201526011602482015270185b1c9958591e4819195c1bdcda5d1959607a1b6044820152606401610125565b335f81815260016020526040808220429055517f20a3fe276908af20d1fa2f8f48225ac6a1997eb2d38695c580adeb4124a1a59b9190a250565b5f602082840312156103b2575f5ffd5b81356001600160a01b03811681146103c8575f5ffd5b9392505050565b818103818111156103ee57634e487b7160e01b5f52601160045260245ffd5b9291505056fea2646970667358221220eed7716ee53453a9a1ea4b4d7599bd0b68a3ab82cd631917841e8369e28a5d5364736f6c634300081c0033","linkReferences":{}},"methodIdentifiers":{"buyerDeposit()":"a0579587","depositTime(address)":"46c64873","seller()":"08551a53","sellerWithdraw(address)":"2e99a3bc"},"id":18}