{"abi":[{"type":"constructor","inputs":[{"name":"_seller","type":"address","internalType":"address"}],"stateMutability":"nonpayable"},{"type":"function","name":"buyerDeposit","inputs":[],"outputs":[],"stateMutability":"payable"},{"type":"function","name":"buyerWithdraw","inputs":[],"outputs":[],"stateMutability":"nonpayable"},{"type":"function","name":"depositTime","inputs":[{"name":"","type":"address","internalType":"address"}],"outputs":[{"name":"","type":"uint256","internalType":"uint256"}],"stateMutability":"view"},{"type":"function","name":"seller","inputs":[],"outputs":[{"name":"","type":"address","internalType":"address"}],"stateMutability":"view"},{"type":"function","name":"sellerWithdraw","inputs":[{"name":"buyer","type":"address","internalType":"address"}],"outputs":[],"stateMutability":"nonpayable"},{"type":"event","name":"Deposited","inputs":[{"name":"","type":"address","indexed":true,"internalType":"address"}],"anonymous":false},{"type":"event","name":"SellerWithdraw","inputs":[{"name":"","type":"address","indexed":true,"internalType":"address"},{"name":"","type":"uint256","indexed":true,"internalType":"uint256"}],"anonymous":false}],"bytecode":{"object":"0x608060405234801561000f575f5ffd5b50604051610c89380380610c89833981810160405281019061003191906100d4565b805f5f6101000a81548173ffffffffffffffffffffffffffffffffffffffff021916908373ffffffffffffffffffffffffffffffffffffffff160217905550506100ff565b5f5ffd5b5f73ffffffffffffffffffffffffffffffffffffffff82169050919050565b5f6100a38261007a565b9050919050565b6100b381610099565b81146100bd575f5ffd5b50565b5f815190506100ce816100aa565b92915050565b5f602082840312156100e9576100e8610076565b5b5f6100f6848285016100c0565b91505092915050565b610b7d8061010c5f395ff3fe608060405260043610610049575f3560e01c806308551a531461004d5780632e99a3bc1461007757806346c648731461009f5780637cc947d0146100db578063a0579587146100f1575b5f5ffd5b348015610058575f5ffd5b506100616100fb565b60405161006e91906106b3565b60405180910390f35b348015610082575f5ffd5b5061009d600480360381019061009891906106fa565b61011f565b005b3480156100aa575f5ffd5b506100c560048036038101906100c091906106fa565b6103b9565b6040516100d2919061073d565b60405180910390f35b3480156100e6575f5ffd5b506100ef6103ce565b005b6100f961051f565b005b5f5f9054906101000a900473ffffffffffffffffffffffffffffffffffffffff1681565b5f5f9054906101000a900473ffffffffffffffffffffffffffffffffffffffff1673ffffffffffffffffffffffffffffffffffffffff163373ffffffffffffffffffffffffffffffffffffffff16146101ad576040517f08c379a00000000000000000000000000000000000000000000000000000000081526004016101a4906107b0565b60405180910390fd5b5f60015f8373ffffffffffffffffffffffffffffffffffffffff1673ffffffffffffffffffffffffffffffffffffffff1681526020019081526020015f205490505f8103610230576040517f08c379a000000000000000000000000000000000000000000000000000000000815260040161022790610818565b60405180910390fd5b6203f48081426102409190610863565b11610280576040517f08c379a0000000000000000000000000000000000000000000000000000000008152600401610277906108e0565b60405180910390fd5b60015f8373ffffffffffffffffffffffffffffffffffffffff1673ffffffffffffffffffffffffffffffffffffffff1681526020019081526020015f205f9055428273ffffffffffffffffffffffffffffffffffffffff167f4a6c1637fbf5139762d2fb05f083cd3bd73c657fa29862a28e96c705156c256c60405160405180910390a35f3373ffffffffffffffffffffffffffffffffffffffff16670de0b6b3a76400006040516103319061092b565b5f6040518083038185875af1925050503d805f811461036b576040519150601f19603f3d011682016040523d82523d5f602084013e610370565b606091505b50509050806103b4576040517f08c379a00000000000000000000000000000000000000000000000000000000081526004016103ab90610989565b60405180910390fd5b505050565b6001602052805f5260405f205f915090505481565b5f60015f3373ffffffffffffffffffffffffffffffffffffffff1673ffffffffffffffffffffffffffffffffffffffff1681526020019081526020015f205490505f8103610451576040517f08c379a0000000000000000000000000000000000000000000000000000000008152600401610448906109f1565b60405180910390fd5b6203f48081426104619190610863565b111561046b575f5ffd5b5f3373ffffffffffffffffffffffffffffffffffffffff16670de0b6b3a76400006040516104989061092b565b5f6040518083038185875af1925050503d805f81146104d2576040519150601f19603f3d011682016040523d82523d5f602084013e6104d7565b606091505b505090508061051b576040517f08c379a000000000000000000000000000000000000000000000000000000000815260040161051290610a59565b60405180910390fd5b5050565b670de0b6b3a76400003414610569576040517f08c379a000000000000000000000000000000000000000000000000000000000815260040161056090610ac1565b60405180910390fd5b5f60015f3373ffffffffffffffffffffffffffffffffffffffff1673ffffffffffffffffffffffffffffffffffffffff1681526020019081526020015f205490505f81146105ec576040517f08c379a00000000000000000000000000000000000000000000000000000000081526004016105e390610b29565b60405180910390fd5b4260015f3373ffffffffffffffffffffffffffffffffffffffff1673ffffffffffffffffffffffffffffffffffffffff1681526020019081526020015f20819055503373ffffffffffffffffffffffffffffffffffffffff167f20a3fe276908af20d1fa2f8f48225ac6a1997eb2d38695c580adeb4124a1a59b60405160405180910390a250565b5f73ffffffffffffffffffffffffffffffffffffffff82169050919050565b5f61069d82610674565b9050919050565b6106ad81610693565b82525050565b5f6020820190506106c65f8301846106a4565b92915050565b5f5ffd5b6106d981610693565b81146106e3575f5ffd5b50565b5f813590506106f4816106d0565b92915050565b5f6020828403121561070f5761070e6106cc565b5b5f61071c848285016106e6565b91505092915050565b5f819050919050565b61073781610725565b82525050565b5f6020820190506107505f83018461072e565b92915050565b5f82825260208201905092915050565b7f6e6f74207468652073656c6c65720000000000000000000000000000000000005f82015250565b5f61079a600e83610756565b91506107a582610766565b602082019050919050565b5f6020820190508181035f8301526107c78161078e565b9050919050565b7f627579657220646964206e6f74206465706f73697400000000000000000000005f82015250565b5f610802601583610756565b915061080d826107ce565b602082019050919050565b5f6020820190508181035f83015261082f816107f6565b9050919050565b7f4e487b71000000000000000000000000000000000000000000000000000000005f52601160045260245ffd5b5f61086d82610725565b915061087883610725565b92508282039050818111156108905761088f610836565b5b92915050565b7f726566756e6420706572696f64206e6f742070617373656400000000000000005f82015250565b5f6108ca601883610756565b91506108d582610896565b602082019050919050565b5f6020820190508181035f8301526108f7816108be565b9050919050565b5f81905092915050565b50565b5f6109165f836108fe565b915061092182610908565b5f82019050919050565b5f6109358261090b565b9150819050919050565b7f73656c6c657220646964206e6f742077697468647261770000000000000000005f82015250565b5f610973601783610756565b915061097e8261093f565b602082019050919050565b5f6020820190508181035f8301526109a081610967565b9050919050565b7f73656e64657220646964206e6f74206465706f736974000000000000000000005f82015250565b5f6109db601683610756565b91506109e6826109a7565b602082019050919050565b5f6020820190508181035f830152610a08816109cf565b9050919050565b7f4661696c656420746f20776974686472617700000000000000000000000000005f82015250565b5f610a43601283610756565b9150610a4e82610a0f565b602082019050919050565b5f6020820190508181035f830152610a7081610a37565b9050919050565b7f696e636f727265637420616d6f756e74000000000000000000000000000000005f82015250565b5f610aab601083610756565b9150610ab682610a77565b602082019050919050565b5f6020820190508181035f830152610ad881610a9f565b9050919050565b7f616c7265616479206465706f73697465640000000000000000000000000000005f82015250565b5f610b13601183610756565b9150610b1e82610adf565b602082019050919050565b5f6020820190508181035f830152610b4081610b07565b905091905056fea2646970667358221220f467a3c1cb42d9d487638cb537a7583592994118f15aa4de4dbfc087bf4e9d7664736f6c634300081c0033","linkReferences":{}},"methodIdentifiers":{"buyerDeposit()":"a0579587","buyerWithdraw()":"7cc947d0","depositTime(address)":"46c64873","seller()":"08551a53","sellerWithdraw(address)":"2e99a3bc"},"id":20}