{"abi":[{"type":"constructor","inputs":[{"name":"_verifyingAddress","type":"address","internalType":"address"}],"stateMutability":"nonpayable"},{"type":"function","name":"verifyV1","inputs":[{"name":"message","type":"string","internalType":"string"},{"name":"r","type":"bytes32","internalType":"bytes32"},{"name":"s","type":"bytes32","internalType":"bytes32"},{"name":"v","type":"uint8","internalType":"uint8"}],"outputs":[],"stateMutability":"view"},{"type":"function","name":"verifyV2","inputs":[{"name":"message","type":"string","internalType":"string"},{"name":"signature","type":"bytes","internalType":"bytes"}],"outputs":[],"stateMutability":"view"},{"type":"function","name":"verifyingAddress","inputs":[],"outputs":[{"name":"","type":"address","internalType":"address"}],"stateMutability":"view"},{"type":"error","name":"ECDSAInvalidSignature","inputs":[]},{"type":"error","name":"ECDSAInvalidSignatureLength","inputs":[{"name":"length","type":"uint256","internalType":"uint256"}]},{"type":"error","name":"ECDSAInvalidSignatureS","inputs":[{"name":"s","type":"bytes32","internalType":"bytes32"}]}],"bytecode":{"object":"0x608060405234801561000f575f5ffd5b50604051610bcb380380610bcb833981810160405281019061003191906100d4565b805f5f6101000a81548173ffffffffffffffffffffffffffffffffffffffff021916908373ffffffffffffffffffffffffffffffffffffffff160217905550506100ff565b5f5ffd5b5f73ffffffffffffffffffffffffffffffffffffffff82169050919050565b5f6100a38261007a565b9050919050565b6100b381610099565b81146100bd575f5ffd5b50565b5f815190506100ce816100aa565b92915050565b5f602082840312156100e9576100e8610076565b5b5f6100f6848285016100c0565b91505092915050565b610abf8061010c5f395ff3fe608060405234801561000f575f5ffd5b506004361061003f575f3560e01c806329f25a59146100435780634125fcce1461005f57806385d955b71461007d575b5f5ffd5b61005d600480360381019061005891906106a2565b610099565b005b6100676101b7565b604051610074919061075f565b60405180910390f35b610097600480360381019061009291906107e1565b6101db565b005b5f6100cb85856040516020016100b09291906108bf565b604051602081830303815290604052805190602001206102bb565b90505f5f9054906101000a900473ffffffffffffffffffffffffffffffffffffffff1673ffffffffffffffffffffffffffffffffffffffff1661015a84848080601f0160208091040260200160405190810160405280939291908181526020018383808284375f81840152601f19601f82011690508083019250505050505050836102ee90919063ffffffff16565b73ffffffffffffffffffffffffffffffffffffffff16146101b0576040517f08c379a00000000000000000000000000000000000000000000000000000000081526004016101a79061092b565b60405180910390fd5b5050505050565b5f5f9054906101000a900473ffffffffffffffffffffffffffffffffffffffff1681565b5f61020d86866040516020016101f29291906108bf565b604051602081830303815290604052805190602001206102bb565b90505f5f9054906101000a900473ffffffffffffffffffffffffffffffffffffffff1673ffffffffffffffffffffffffffffffffffffffff1661025d83868685610318909392919063ffffffff16565b73ffffffffffffffffffffffffffffffffffffffff16146102b3576040517f08c379a00000000000000000000000000000000000000000000000000000000081526004016102aa90610993565b60405180910390fd5b505050505050565b5f7f19457468657265756d205369676e6564204d6573736167653a0a3332000000005f5281601c52603c5f209050919050565b5f5f5f5f6102fc8686610346565b92509250925061030c828261039b565b82935050505092915050565b5f5f5f5f610328888888886104fd565b925092509250610338828261039b565b829350505050949350505050565b5f5f5f6041845103610386575f5f5f602087015192506040870151915060608701515f1a9050610378888285856104fd565b955095509550505050610394565b5f600285515f1b9250925092505b9250925092565b5f60038111156103ae576103ad6109b1565b5b8260038111156103c1576103c06109b1565b5b03156104f957600160038111156103db576103da6109b1565b5b8260038111156103ee576103ed6109b1565b5b03610425576040517ff645eedf00000000000000000000000000000000000000000000000000000000815260040160405180910390fd5b60026003811115610439576104386109b1565b5b82600381111561044c5761044b6109b1565b5b0361049057805f1c6040517ffce698f700000000000000000000000000000000000000000000000000000000815260040161048791906109f6565b60405180910390fd5b6003808111156104a3576104a26109b1565b5b8260038111156104b6576104b56109b1565b5b036104f857806040517fd78bce0c0000000000000000000000000000000000000000000000000000000081526004016104ef9190610a1e565b60405180910390fd5b5b5050565b5f5f5f7f7fffffffffffffffffffffffffffffff5d576e7357a4501ddfe92f46681b20a0845f1c1115610539575f6003859250925092506105da565b5f6001888888886040515f815260200160405260405161055c9493929190610a46565b6020604051602081039080840390855afa15801561057c573d5f5f3e3d5ffd5b5050506020604051035190505f73ffffffffffffffffffffffffffffffffffffffff168173ffffffffffffffffffffffffffffffffffffffff16036105cd575f60015f5f1b935093509350506105da565b805f5f5f1b935093509350505b9450945094915050565b5f5ffd5b5f5ffd5b5f5ffd5b5f5ffd5b5f5ffd5b5f5f83601f84011261060d5761060c6105ec565b5b8235905067ffffffffffffffff81111561062a576106296105f0565b5b602083019150836001820283011115610646576106456105f4565b5b9250929050565b5f5f83601f840112610662576106616105ec565b5b8235905067ffffffffffffffff81111561067f5761067e6105f0565b5b60208301915083600182028301111561069b5761069a6105f4565b5b9250929050565b5f5f5f5f604085870312156106ba576106b96105e4565b5b5f85013567ffffffffffffffff8111156106d7576106d66105e8565b5b6106e3878288016105f8565b9450945050602085013567ffffffffffffffff811115610706576107056105e8565b5b6107128782880161064d565b925092505092959194509250565b5f73ffffffffffffffffffffffffffffffffffffffff82169050919050565b5f61074982610720565b9050919050565b6107598161073f565b82525050565b5f6020820190506107725f830184610750565b92915050565b5f819050919050565b61078a81610778565b8114610794575f5ffd5b50565b5f813590506107a581610781565b92915050565b5f60ff82169050919050565b6107c0816107ab565b81146107ca575f5ffd5b50565b5f813590506107db816107b7565b92915050565b5f5f5f5f5f608086880312156107fa576107f96105e4565b5b5f86013567ffffffffffffffff811115610817576108166105e8565b5b610823888289016105f8565b9550955050602061083688828901610797565b935050604061084788828901610797565b9250506060610858888289016107cd565b9150509295509295909350565b5f82825260208201905092915050565b828183375f83830152505050565b5f601f19601f8301169050919050565b5f61089e8385610865565b93506108ab838584610875565b6108b483610883565b840190509392505050565b5f6020820190508181035f8301526108d8818486610893565b90509392505050565b7f7369676e6174757265206e6f742076616c6964207632000000000000000000005f82015250565b5f610915601683610865565b9150610920826108e1565b602082019050919050565b5f6020820190508181035f83015261094281610909565b9050919050565b7f7369676e6174757265206e6f742076616c6964207631000000000000000000005f82015250565b5f61097d601683610865565b915061098882610949565b602082019050919050565b5f6020820190508181035f8301526109aa81610971565b9050919050565b7f4e487b71000000000000000000000000000000000000000000000000000000005f52602160045260245ffd5b5f819050919050565b6109f0816109de565b82525050565b5f602082019050610a095f8301846109e7565b92915050565b610a1881610778565b82525050565b5f602082019050610a315f830184610a0f565b92915050565b610a40816107ab565b82525050565b5f608082019050610a595f830187610a0f565b610a666020830186610a37565b610a736040830185610a0f565b610a806060830184610a0f565b9594505050505056fea2646970667358221220fe9d65355c953a352f49eb21b6ddfc8336a94801eccc9285ca94fc1e513234ff64736f6c634300081c0033","linkReferences":{}},"methodIdentifiers":{"verifyV1(string,bytes32,bytes32,uint8)":"85d955b7","verifyV2(string,bytes)":"29f25a59","verifyingAddress()":"4125fcce"},"id":25}